:020000040000fa
:080000000002040000000000f2
:020000040000fa
:0400080032040000be
:020000040000fa
:04000c0032040000ba
:020000040000fa
:0400100032040000b6
:020000040000fa
:0400140032040000b2
:020000040000fa
:0400180032040000ae
:020000040000fa
:04001c0032040000aa
:020000040000fa
:0400200032040000a6
:020000040000fa
:0400240032040000a2
:020000040000fa
:04002800320400009e
:020000040000fa
:04002c00fa030000d3
:020000040000fa
:040030003204000096
:020000040000fa
:040034003204000092
:020000040000fa
:04003800320400008e
:020000040000fa
:04003c00320400008a
:020000040000fa
:040040003204000086
:020000040000fa
:040044003204000082
:020000040000fa
:04004800320400007e
:020000040000fa
:04004c00320400007a
:020000040000fa
:040050003204000076
:020000040000fa
:04005400de030000c7
:020000040000fa
:04005800c2030000df
:020000040000fa
:04005c00320400006a
:020000040000fa
:040060003204000066
:020000040000fa
:040064003204000062
:020000040000fa
:04006800320400005e
:020000040000fa
:04006c00320400005a
:020000040000fa
:040070003204000056
:020000040000fa
:040074003204000052
:020000040000fa
:04007800320400004e
:020000040000fa
:04007c00320400004a
:020000040000fa
:040080003204000046
:020000040000fa
:040084003204000042
:020000040000fa
:04008800320400003e
:020000040000fa
:04008c00320400003a
:020000040000fa
:040090003204000036
:020000040000fa
:040094003204000032
:020000040000fa
:04009800320400002e
:020000040000fa
:04009c00320400002a
:020000040000fa
:0400a0003204000026
:020000040000fa
:0400a4003204000022
:020000040000fa
:0400a800320400001e
:020000040000fa
:0400ac00320400001a
:020000040000fa
:0400b0003204000016
:020000040000fa
:0400b4003204000012
:020000040000fa
:0400b800320400000e
:020000040000fa
:0400bc00320400000a
:020000040000fa
:0400c0003204000006
:020000040000fa
:0400c4003204000002
:020000040000fa
:0400c80032040000fe
:020000040000fa
:0400cc0032040000fa
:020000040000fa
:0400d00032040000f6
:020000040000fa
:0400d40032040000f2
:020000040000fa
:0400d80032040000ee
:020000040000fa
:0400dc0032040000ea
:020000040000fa
:0400e00032040000e6
:020000040000fa
:0400e40032040000e2
:020000040000fa
:0400e80032040000de
:020000040000fa
:0400ec0032040000da
:020000040000fa
:0400f00032040000d6
:020000040000fa
:0400f40032040000d2
:020000040000fa
:0400f80032040000ce
:020000040000fa
:0400fc0032040000ca
:020000040000fa
:0401000032040000c5
:020000040000fa
:0401040032040000c1
:020000040000fa
:0401080032040000bd
:020000040000fa
:04010c0032040000b9
:020000040000fa
:0401100032040000b5
:020000040000fa
:0401140032040000b1
:020000040000fa
:0401180032040000ad
:020000040000fa
:04011c0032040000a9
:020000040000fa
:0401200032040000a5
:020000040000fa
:0401240032040000a1
:020000040000fa
:04012800320400009d
:020000040000fa
:04012c003204000099
:020000040000fa
:040130003204000095
:020000040000fa
:040134003204000091
:020000040000fa
:04013800320400008d
:020000040000fa
:04013c003204000089
:020000040000fa
:040140003204000085
:020000040000fa
:040144003204000081
:020000040000fa
:04014800320400007d
:020000040000fa
:04014c003204000079
:020000040000fa
:040150003204000075
:020000040000fa
:040154003204000071
:020000040000fa
:04015800320400006d
:020000040000fa
:04015c003204000069
:020000040000fa
:040160003204000065
:020000040000fa
:040164003204000061
:020000040000fa
:04016800320400005d
:020000040000fa
:04016c003204000059
:020000040000fa
:040170003204000055
:020000040000fa
:040174003204000051
:020000040000fa
:04017800320400004d
:020000040000fa
:04017c003204000049
:020000040000fa
:040180003204000045
:020000040000fa
:040184003204000041
:020000040000fa
:04018800320400003d
:020000040000fa
:04018c003204000039
:020000040000fa
:040190003204000035
:020000040000fa
:040194003204000031
:020000040000fa
:04019800320400002d
:020000040000fa
:04019c003204000029
:020000040000fa
:0401a0003204000025
:020000040000fa
:0401a4003204000021
:020000040000fa
:0401a800320400001d
:020000040000fa
:0401ac003204000019
:020000040000fa
:0401b0003204000015
:020000040000fa
:0401b4003204000011
:020000040000fa
:0401b800320400000d
:020000040000fa
:0401bc003204000009
:020000040000fa
:0401c0003204000005
:020000040000fa
:0401c4003204000001
:020000040000fa
:0401c80032040000fd
:020000040000fa
:0401cc0032040000f9
:020000040000fa
:0401d00032040000f5
:020000040000fa
:0401d40032040000f1
:020000040000fa
:0401d80032040000ed
:020000040000fa
:0401dc0032040000e9
:020000040000fa
:0401e00032040000e5
:020000040000fa
:0401e40032040000e1
:020000040000fa
:0401e80032040000dd
:020000040000fa
:0401ec0032040000d9
:020000040000fa
:0401f00032040000d5
:020000040000fa
:0401f40032040000d1
:020000040000fa
:0401f80032040000cd
:020000040000fa
:0401fc0032040000c9
:020000040000fa
:0402000032040000c4
:020000040000fa
:0402040032040000c0
:020000040000fa
:0402080032040000bc
:020000040000fa
:04020c0032040000b8
:020000040000fa
:0402100032040000b4
:020000040000fa
:0402140032040000b0
:020000040000fa
:0402180032040000ac
:020000040000fa
:04021c0032040000a8
:020000040000fa
:0402200032040000a4
:020000040000fa
:0402240032040000a0
:020000040000fa
:04022800320400009c
:020000040000fa
:04022c003204000098
:020000040000fa
:040230003204000094
:020000040000fa
:040234003204000090
:020000040000fa
:04023800320400008c
:020000040000fa
:04023c003204000088
:020000040000fa
:040240003204000084
:020000040000fa
:040244003204000080
:020000040000fa
:04024800320400007c
:020000040000fa
:04024c003204000078
:020000040000fa
:040250003204000074
:020000040000fa
:040254003204000070
:020000040000fa
:04025800320400006c
:020000040000fa
:04025c003204000068
:020000040000fa
:040260003204000064
:020000040000fa
:040264003204000060
:020000040000fa
:04026800320400005c
:020000040000fa
:04026c003204000058
:020000040000fa
:040270003204000054
:020000040000fa
:040274003204000050
:020000040000fa
:04027800320400004c
:020000040000fa
:04027c003204000048
:020000040000fa
:040280003204000044
:020000040000fa
:040284003204000040
:020000040000fa
:04028800320400003c
:020000040000fa
:04028c003204000038
:020000040000fa
:040290003204000034
:020000040000fa
:040294003204000030
:020000040000fa
:04029800320400002c
:020000040000fa
:04029c003204000028
:020000040000fa
:0402a0003204000024
:020000040000fa
:0402a4003204000020
:020000040000fa
:0402a800320400001c
:020000040000fa
:0402ac003204000018
:020000040000fa
:0402b0003204000014
:020000040000fa
:0402b4003204000010
:020000040000fa
:0402b800320400000c
:020000040000fa
:0402bc003204000008
:020000040000fa
:0402c0003204000004
:020000040000fa
:0402c4003204000000
:020000040000fa
:0402c80032040000fc
:020000040000fa
:0402cc0032040000f8
:020000040000fa
:0402d00032040000f4
:020000040000fa
:0402d40032040000f0
:020000040000fa
:0402d80032040000ec
:020000040000fa
:0402dc0032040000e8
:020000040000fa
:0402e00032040000e4
:020000040000fa
:0402e40032040000e0
:020000040000fa
:0402e80032040000dc
:020000040000fa
:0402ec0032040000d8
:020000040000fa
:0402f00032040000d4
:020000040000fa
:0402f40032040000d0
:020000040000fa
:0402f80032040000cc
:020000040000fa
:0402fc0032040000c8
:020000040000fa
:0403000032040000c3
:020000040000fa
:0403040032040000bf
:020000040000fa
:0403080032040000bb
:020000040000fa
:04030c0032040000b7
:020000040000fa
:0403100032040000b3
:020000040000fa
:0403140032040000af
:020000040000fa
:0403180032040000ab
:020000040000fa
:04031c0032040000a7
:020000040000fa
:0403200032040000a3
:020000040000fa
:100400000f1621000eff24000e01880000002000be
:100410000000e000020032000001200020028800fd
:1004200014000700710107000000e00003003a001b
:10043000209d210001002000020037000000200064
:1004400001002000810f70004220ae000f00070065
:10045000000020000000e0004220ae00000002008a
:1004600000000000b4180200000000000040da00a4
:100470000000fe00a00320000000e00002003200a7
:10048000002020009001880000000600a1028800e2
:10049000800478000000eb001f003700e284440075
:1004a00054a0b4009905ba00e284440054a0b400fa
:1004b0009906ba00e284440054a0b4000006eb00a0
:1004c000476fde00fd07b200ae018800636ce100fb
:1004d00003003a000ad801000000eb000e003700cc
:1004e000606ce10008003a00004deb000a05e800ee
:1004f000020039003420ec000af0a0008b05e9006e
:10050000f9ff3e00040037006168e100010032009d
:100510000086eb000b00070019c7ba001905ba00e6
:100520000e04e00003003a000a00e000dbff3a009e
:1005300000000600fe07b200ae0288008a047800c0
:10054000f5ff37000cd0a300e20f4d001c003b006c
:1005500089027800354dba000a05e800020039002a
:100560003420ec000af0a0008b05e9000f003200f7
:10057000254dba000a05e800020039003420ec00dd
:100580000af0a0008b05e900080032000c00e00032
:100590000600320015cdba000a05e8000200390055
:1005a0003420ec000af0a0008b05e9008984e80003
:1005b00054a0b4000b00e000e2ff3a000000060087
:1005c0009902ba00055d78008b05e900f7ff32005b
:1005d000c82ade00055d78008b05e900f3ff3200d4
:1005e0000c00e000f1ff320019ddba00eeff370029
:1005f0006100e10001003200100005005400f80025
:1006000010102000a002880000f925001000ba0098
:100610005400f9000700220000f0a6008703d10073
:100620000703780001c4fe000003eb000120200056
:100630009101880001b02900111303008703e9002c
:10064000fdff3a0000f0a7000000050000f0a00048
:1006500080c4fe0086037800f3ff37000408200002
:10066000010037000002eb006100e10001003200f0
:10067000100005003200f8003400f8008102780014
:10068000930188003200be000100e0000c0032003f
:100690000470a70000f0a00032037800c733de002a
:1006a000848343004220af008703e800a70188004d
:1006b000f607b2007f30e100040032002000200085
:1006c0003400f9003200f900000006008100e90062
:1006d0000500e00003003a00018009003210030029
:1006e000e8ff37000180090032900300d561ae00b9
:1006f000e4ff370030002000f1ff370050052000f4
:10070000b00e8800a00a2000b00e8800d3e1a80037
:100710000000060050052000b00e8800a00a20004e
:10072000b00e8800d3e1a90000000600ce18040036
:10073000000000004a19040000000000de18040058
:10074000000000003a19040000000000a019040095
:1007500000000000b219040000000000be190400ef
:1007600000000000a8190400000000008008040038
:10077000000000002408040000000000be07040080
:10078000000000003200f8003400f800881f7800f4
:1007900018002000a80188000820200008d0fe00d2
:1007a0004f0478000000fa000188a9000080fa00d8
:1007b0003400f9003200f900004006003200f80071
:1007c0003400f800881f780018002000a801880075
:1007d0000820200008d0fe004f0478000000fa0036
:1007e0000168a9000080fa003400f9003200f90025
:1007f00000400600809fbe003200f8003400f80080
:1008000010002000a00188000020200000d0fe0081
:100810000000fa000028a90002d0bf000004e00098
:100820000a003200208080000000e800208088005c
:1008300021808000a00f2000808f500004003a002b
:100840000430ef000270ef00010037000430ef00c9
:100850000080fa003400f9003200f9004f00be00b9
:10086000004006000040da000000fe00ec87470070
:100870008e1f78006c87570044002000041f78000a
:10088000000f78006c87570002afbe00e1bf9f00e9
:100890006c8057004d0607001e00be004f07780011
:1008a000cf00b10000000600ec8747008e1f7800e3
:1008b00011002000a1bf9f006c875700002f780017
:1008c0006c805700430607001e0078004f07780031
:1008d000cf00b10000000600ec8747008e1f7800b3
:1008e000e20f500034003e00e08a8000e10f50002b
:1008f00003003200e20f500011003a000c003700f4
:10090000832320000300e00001003a000040da00e9
:100910003802e200020035004022ef0039e2a80070
:1009200038a2ab000d003a0038a2a8000b00370037
:10093000032620000300e00001003a000040da0036
:100940006002e200020035006822ef0061e2a800c8
:1009500060a2ab0001003a0060a2a800820178000a
:100960000b0037003102fb00e10f500004003a0099
:100970003e82ab00feff3a004412880003003700bd
:100980006682ab00feff3a00841388008301e90011
:100990000300e000f3ff3a00e10f500003003a00cb
:1009a0003ea2ab00feff32000c00370066a2ab0097
:1009b000feff3200090037006c875700330020002b
:1009c000031f7800000f7800c1bf9f00d2bf9f00b7
:1009d0006c805700010607005fb99700020078009d
:1009e0004f077800cf00b1000000060000000500ae
:1009f000889fbe008a9fbe0030044200b0844a0037
:100a000030054b0090854b006000b1000898be0097
:100a10000a90be000440e10005c8e10006d0e100f4
:100a200007d8e10002003100680040001008e8002b
:100a30004f05be004f04be0000000600889fbe00a8
:100a40008a9fbe003004be002005be00041854007a
:100a500005985c0006185d0007985d0011002000f5
:100a60000440e10005c8e10006d0e10007d8e1003c
:100a7000010039008000eb00108810004f05be0017
:100a80004f04be0000000600f4874700889fbe00a8
:100a90008a9fbe008c9fbe008e1f7800d0b79f003b
:100aa000e1b79f00f2b79f0083bf9f000605be001d
:100ab0000404be00cfae97000000eb00c0b79f005b
:100ac000b0b79f00a0b79f0090b79f0080b79f006e
:100ad000000678004fb09700000140000000e000e1
:100ae00006003d003c0007000f07470045000700d7
:100af0000f004000beff070005003700360007006a
:100b00000f0747003f0007000f004000cbff070022
:100b10004fb797000e00e0000c0035005fb2970061
:100b2000efb297007fb397008fbb970010002000b3
:100b3000010020006011b800000272008182720082
:100b400002037300838373001c0007000c06e80097
:100b500001042000810f5600deff3a000e00e00085
:100b600005003d000802be000a03be0000fe2f0083
:100b70000f0040009eff07000d00e00005003a0056
:100b80000fb297009fb297002fb39700bfb39700a3
:100b90000a0007005fb09700efb097007fb19700a1
:100ba0008fb997004f0778004f06be004f05be0073
:100bb0004f04be004f01b100000006000100070015
:100bc0000000060094b79f00a5b79f00b6b79f002e
:100bd000c7b79f00000006009fb097004f08de00d7
:100be00002017000a2b79f000fb097004f01de0016
:100bf000818040008100710091b79f000efe2f00a0
:100c000000000600de0078004f09de000000400012
:100c10000000710080b79f006fa897004f01de00b1
:100c200081804000010f71000e0007004f3ade0086
:100c30000000400004007000e0af9f0009000700c2
:100c40000402420085824a0006034b0087834b0062
:100c5000dcff07000802be000a03be0000fe2f00f2
:100c6000000006001fb29700afb297003fb3970095
:100c7000cfb3970000000600881f780018002000fe
:100c8000881f780080ff07008f87e9004f047800f5
:100c900000000600801feb007bff07008f87e90044
:100ca00000000600889fbe008a9fbe00e00f500033
:100cb000e08f5800e00f5900e08f59000c003d0014
:100cc0006044b8006055b8000000540081805c00aa
:100cd00002015d0083815d001800200015000700ff
:100ce00008003d00180007000004eb000500370075
:100cf0000004eb000f00070002003d001200070097
:100d000018002000dcff07000800e00006003200a9
:100d10006022b8006033b8000000520081805a00a1
:100d200002015b0083815b004f05be004f04be00e3
:100d300000000600e00f5200e08f5a00e00f5b0059
:100d4000e08f5b00000006006044b8006055b8000a
:100d50000402540085825c0006035d0087835d0009
:100d600000000600889fbe008a9fbe008c1f78008e
:100d7000e00f5000e08f5800e00f5900e08f59005d
:100d80000d003d006044b8006055b80000005400fc
:100d900081805c0002015d0083815d001c002000f9
:100da0000820e10009a8e1000ab0e1000bb8e10069
:100db0000d003d00080037000006eb00e00f520078
:100dc000e08f5a00e00f5b00e08f5b0006003d0003
:100dd0006044b8006055b8000402540085825c008d
:100de00006035d0087835d00aaff07000c00e0009a
:100df000060032006022b8006033b80000005200e4
:100e000081805a0002015b0083815b004f067800fd
:100e10004f05be004f04be0000000600889fbe00c4
:100e20008a9fbe008c1f78000006eb00e00f500088
:100e3000e08f5800e00f5900e08f590007003d0097
:100e40006044b8006055b8000000540081805c0028
:100e500002015d0083815d001c002000e00f520054
:100e6000e08f5a00e00f5b00e08f5b0007003d0061
:100e70006044b8006055b8000402540085825c00ec
:100e800006035d0087835d000c00a2000c000700d4
:100e90000c00e000060032006022b8006033b800a9
:100ea0000000520081805a0002015b0083815b00d8
:100eb0004f0678004f05be004f04be00000006003c
:100ec000889fbe008a9fbe008c9fbe000404b800ad
:100ed0000506b8008904460060854e000606b80085
:100ee0000a054600e0854e000706b8008b0546005f
:100ef000040eb800890446000a854e00e0854d00c6
:100f0000050eb8000a0546008b854e00060eb80097
:100f10008b0546000416b8000a0546008b854e0076
:100f20000516b8008b054600041eb8008b05460068
:100f30000800be000a01be004f06be004f05be00fd
:100f40004f04be0000000600f18780009100780089
:100f50009d000700110020000000e00005003500a2
:100f6000f087800090007800a0002000e1000700da
:100f7000cf00de000100ea000000060000000600cd
:100f80004010210000000600fdff070010888800c7
:100f90000088880000000600800078000400370008
:100fa0003104e00002003a00000051000000060099
:100fb000010178000108a300f9ff3a0081017800df
:100fc00031017800f4ef2f00020242000281ea00b2
:100fd000020162000408280004016100f7ff3200ea
:100fe00083007800010178003104e000fdff3a0041
:100ff0000000510000000600889fbe008a1f780094
:10100000800478004900900002047800800f5400aa
:101010000100360000047800080178006a85440069
:101020001a007800940007001a004400000d7800b0
:10103000e8844400990c14000048eb004f05780048
:101040004f04be00000006001000780022fe3700aa
:10105000900190000388a30001003200e6ff3700f2
:101060000348a30001003a00f7ff07000000060054
:10107000889fbe008a1f7800000478000105780070
:101080000000eb000800e0001a0032001800900099
:101090000058a3000c003200ea04440068009000ed
:1010a000990f100008003600b80990000001eb000d
:1010b0008200780008007800030001000080eb0047
:1010c0001900e0000b003200740044000008eb003f
:1010d0006c0044000008eb006a0044000008eb00cc
:1010e0000000eb000a00e000020032001800780067
:1010f000edfd07004f0578004f04be00000006001c
:10110000889fbe008a1f78000004be000000eb002c
:101110000800e00029003200180090000058a300e9
:10112000120032006a054400680090009a0f100017
:1011300008003600b80990000001eb00820078003a
:1011400008007800030001000080eb001a00e000b6
:101150001a003200740044000008eb006c004400e8
:101160000008eb006a0044000008eb00780a9000d9
:1011700008109000800f520006003100000252005b
:1011800011002000cfa2de00612bb900180078000a
:10119000b6fd070000022000080040000008eb0038
:1011a0007e0044000008eb000000eb000900e000b6
:1011b0000200320018007800bbfd07004f057800e0
:1011c0004f04be0000000600889fbe008a1f780002
:1011d0008004780001057800090078006eff0700a0
:1011e000000478008a0178000801780011002000ce
:1011f000090078000a000700800078000080eb00fa
:10120000888f500001003a000000eb004f05780085
:101210004f04be000000060010007800aefd37004d
:10122000889fbe008a1f780081047800020478003d
:1012300089c5b9000900e00001003a000004eb0094
:101240000a01780080007800030078007eff070024
:10125000800078008a8f50000300320005000900ea
:101260008980d80000047800080078004f057800d5
:101270004f04be0000000600800178000200370025
:10128000b15978000201e9000200e000fcff3a00d9
:10129000000006000200fa0000017800010078005a
:1012a000e2ff9f00900090000188a300060032003a
:1012b000ea01400093007800825878000280fb0029
:1012c0008109780009003700120020008f80e900b2
:1012d0005dff0700800078000080eb000100e00067
:1012e00002003200eff897000180fb000080fa0056
:1012f00000000600e7ff37000000fa00cfb89700b3
:1013000068815700f0878000100078002d000700ea
:101310000080fa000000060000003700ea8747005e
:10132000889fbe008a9fbe008e1f78000004780050
:10133000030078007287570084e2260055c7260014
:10134000049fbe00c3962200030f78006c875700ed
:10135000004feb0011059000a1049000910578006a
:101360000200e000020032000207780001003700ae
:10137000728757000000e00002003a000e0078007b
:1013800005ff07000a00e000030035008a0f500047
:10139000010036000a0078000b027800890178000d
:1013a000000178008e007800080078002700070010
:1013b0004f0778004f05be004f04be00af00b100dc
:1013c000000006000200fa00881f78000004780080
:1013d000e2bf9f006481570008007800d101070038
:1013e000980090000148a300010032000080eb004b
:1013f0004f0478000080fa0000000600889fbe00bd
:101400008a1f780080047800490090000204780068
:10141000800f5400010036000004780008017800b5
:101420006a8544001a00780093ff07001a00440000
:10143000000d7800e8844400990c14000048eb008b
:101440004f0578004f04be0000000600f2874700f9
:10145000889fbe008a9fbe008c9fbe008e1f7800b2
:101460008004780001057800020478008305780084
:101470006107620002003a008b0f54000800390037
:10148000080178008a00780009007800f0fe070063
:101490008b0f540002003900880578001e003700c9
:1014a000088655000c017800f00f56000100360048
:1014b00002012000010220007e805700b9010700d0
:1014c0008c0678000500370002012000fe805700de
:1014d00009007800defe0700f0865600ef8f560008
:1014e000f9ff3e004461de0000ff2f008091b9004b
:1014f0000c014100fe80570009007800d4fe07006f
:101500000e00e00004003a00080178008a0078002c
:1015100009007800cefe07000b0078004f07780026
:101520004f06be004f05be004f04be002f01b100a4
:101530000000060000000500000005000000050096
:10154000000178000040eb008080fb0081804000bb
:101550006314210081814100134278000404e000fb
:1015600004003a007014210081004000114078000e
:101570000000060092017800934f520005003a00e7
:101580007014210081004000114078000309e80038
:10159000010037000040e800ea4f5000eaff360043
:1015a00000000600f6874700889fbe008a9fbe00a5
:1015b0008c9fbe008e1f78008004780001047800a4
:1015c00083057800040678000000eb00c0b79f0098
:1015d0008080eb00d1b79f00e0b79f00f2b79f007b
:1015e0000008200080bf9f0098007800010078006c
:1015f0000005eb00010037000a05e80030417800e3
:101600000204e0000300320053c2b300834f5100d4
:10161000f9ff3a000a00e000040032000a017800f5
:10162000090078008afe0700180c450018077800aa
:1016300050c2b3009e4f100033013a000e07e8007d
:101640000e0c780010003700cfb097000100a0000a
:101650000b003700cfb097000110a0000800370042
:10166000cfb097000120a00005003700cfb0970051
:101670000130a00002003700cfb097000140a00069
:10168000c1b79f00000ce800180078009040780077
:10169000b2c2b30082cf5000f1ff320007003c001d
:1016a00002c2b30082cf5000f0ff320032c2b3005a
:1016b00082cf500007003a00efff3700d2c2b300dc
:1016c00082cf5000e0ff320002c3b30082cf50004f
:1016d000e0ff3200a2c2b30082cf50000d003a00fa
:1016e000000ce8001c80e900000e78001000780073
:1016f000e0b79f000000e0000f003d00cfb0970072
:101700000100a200c1b79f000000ea00e0b79f00ff
:101710000900370090010700e0b79f000100370083
:10172000000ce800180078009000fb000103b100f5
:10173000e98f5000faff36004fb097000008a30071
:10174000020032000010a100c0b79f00180078000e
:10175000e1c2b30090cf100016003a008000eb0009
:10176000d1b79f000000e800000c7800a1c2b300d0
:1017700090cf100006003a00000ce8001c80e90041
:10178000000e780010007800d0b79f0009003700e5
:1017900071010700d0b79f0001003700000ce8007e
:1017a000180078009000fb000103b100e98f5000a1
:1017b000faff36000800780061ff070080467800d5
:1017c000180078001000fb00890107009106200036
:1017d000810f50003800320012003c00410620000a
:1017e000810f5000340032000a003c001106200036
:1017f000810f50002000320031062000810f500080
:101800009a00320051022000810f5000ae003a00d1
:10181000a700370071062000810f5000aa003c008d
:101820008200370001072000810f50005c00320069
:1018300007003c00e1062000810f500074003200d8
:10184000f1062000810f50009f003a003900370058
:1018500051072000810f500027003200810720002f
:10186000810f50004200320031072000810f5000ec
:1018700095003a00850037008d80fb000c01780050
:1018800000fe2f000f004000600107000000e00094
:101890009c00320018007800000ce80090417800ad
:1018a00002fe2f000f014100f88057000900780068
:1018b00021ff07000e0037008d80fb008c017800af
:1018c0001200200000fe2f000f0040006e010700f4
:1018d0000000e0008b003200180ce80002fe2f0030
:1018e0000f014100f88057000900780011ff070040
:1018f00000054500840037008d80fb008c017800d6
:101900000001eb0000fe2f000f0040005e01070009
:101910000000e0007b003200180ce80002fe2f00ff
:101920000f014100f88057000900780001ff07000f
:10193000efff37008d80fb008c0178000001eb0089
:1019400000fe2f000f0040004f0107000000e000e4
:101950006c003200180ce80002fe2f000f0141005d
:10196000f880570009007800f2fe0700e0ff37001a
:101970008d80fb008c0178000001eb0000fe2f0041
:101980000f004000400107000000e0005d00320051
:1019900018007800000ce80090417800160037002d
:1019a0008c0178000001eb00010f200000fe2f00e9
:1019b0000f004000340107000000e0005100320039
:1019c000180ce8000fb097009fb097002fb1970058
:1019d000bfb19700e00f5000e08f5800e00f5900b2
:1019e000e08f590003003a008001eb00021421004f
:1019f0004000370083c7b30002fe2f000f014100f3
:101a0000f880570009007800cbfe0700b8ff3700c8
:101a10000b0145008d80fb008c01780000fe2f003b
:101a20000f00400071010700360037008d80fb0079
:101a30000c01780000fe2f000f004000f3000700ab
:101a40000000e0002f00320018007800000ce800d1
:101a50009041780002fe2f000f014100f8805700ee
:101a600009007800b4fe0700a1ff370000c8b300ea
:101a700080cf560023003a00180ce8001c80e900d3
:101a8000000e7800104078000d00370000c8b30049
:101a900080cf56001b003a00180ce8001c80e900bb
:101aa000000e78008001eb00100178001100370073
:101ab00001c8b30081cf560012003a00180ce800ac
:101ac000e0df9f000800370050c2b300e0df9f0056
:101ad0000e0c78000000eb00c0b79f00e0b79f003d
:101ae0008080eb00d1b79f0013002000e2fd2f00a3
:101af0000f014100f88057000900780007fe070039
:101b00007bff3700180ce8000a0078004f077800c8
:101b10004f06be004f05be004f04be006f01b1006e
:101b2000000006008200fa00889fbe008a1f78002d
:101b30000005780082047800c13f9f000004eb009c
:101b4000100037000902780088017800a2f72f0002
:101b50000f01410081f72f008f8040000a007800bc
:101b600090fe070008004000880f500004003d0070
:101b7000b0042000f08a88000084eb0004003700e5
:101b8000000478004f3897001004e000edff3a00a1
:101b9000080078004f0578004f04be000080fa006e
:101ba00000000600889fbe008a9fbe008004780067
:101bb0000200e0005a00320001407800814c7800b9
:101bc00082814400f1f99f00e20f51005400360079
:101bd00091449800a1449800e1f99f00d1f99f0039
:101be000e60f51004e003600b1449800c1f99f0045
:101bf000e80f51004a0036000905ea006305650058
:101c00000a8444000a055100c1ff2f000105650048
:101c10000080fb008000eb00121020001310200059
:101c200064010700008cbe000a01440060b99f00f7
:101c300071b99f00e80f5500390036002004980064
:101c400031049800400498005104980020b99f0086
:101c500031b99f0040b99f0051b99f00f80f55005e
:101c60002f0036006004980071049800000c980062
:101c7000110c9800200c9800310c9800400c980032
:101c8000510c980020b19f0031b19f0040b19f00de
:101c900051b19f0060b19f0071b19f0000b99f00da
:101ca00011b99f00640164007801410002044400fe
:101cb000020555006011b8000203be000002be001c
:101cc0000403be006022b800000072008180720030
:101cd00002017300838173000f003700080278004f
:101ce000009abe00029abe00009abe000292be0098
:101cf000000c9800110c9800220c9800330c9800ee
:101d0000400c9800510c9800620c9800730c9800dd
:101d10000a02b1000802b000ff0f5500efff3e00bd
:101d2000090078004f05be004f04be000000060009
:101d3000800078001000200002022000828f5000f6
:101d400004003200e9805000e48f500001003600aa
:101d50000000eb0000000600889fbe008a1f78008c
:101d600080047800090478008804780039457800f8
:101d70000a00fb00eeff07000000e000f9ff3a0058
:101d8000b0c2b300804f550005003200d0c2b3008e
:101d90008000eb00804f550005003a00020037003c
:101da0008000eb0001003700110020000804e8006b
:101db0000000eb0003003700ea00b9000200500009
:101dc0000003b0003801fb0003fd2f0082814100b9
:101dd000e98f5100f8ff36000100e00001003a00f1
:101de0000000ea004f0578004f04be000000060026
:101df000f1fb2f0080804000f98f500001003e0071
:101e00000050a00000000600f9ff3700881f78008e
:101e10000004780000082000808f50001700350073
:101e200010082000808f50000b0034003008200084
:101e3000808f500011003a009200780068805000b6
:101e4000000978003002be002003be00049cbe00e2
:101e50000694be00070037009202780064805200aa
:101e6000000978001000be009e000700009cbe0024
:101e70000294be0010002000010037000000eb00bb
:101e80004f0478000000060084082000848f500072
:101e90001d0032000d003c0014082000848f50000b
:101ea0002700320002003c00040820000400370034
:101eb00024082000848f50002a00320044082000ab
:101ec000848f500048003a003b003700040a20008d
:101ed000848f50002c00320004003c0004092000d4
:101ee000848f500040003a002d003700020c200083
:101ef000828f50001e003200020f2000828f50009f
:101f000039003a00300037009380e9000200e00019
:101f100005003200810978001102fb00cfa2de002b
:101f2000612bb9002d00370081097800114278003b
:101f30000482fb008002eb006033b800270037000a
:101f400013027800e40052000200e0000a003200b0
:101f5000810978001102be004fabde0086037800d5
:101f60001e00370093027800e88052000e00370010
:101f700093027800e4805200810978001102be00cb
:101f80006033b800150037009380e90081097800bc
:101f900011027800cfa2de00612bb9000f003700dc
:101fa00013037800e8005300810978003102be0075
:101fb0002103be00090037009380e9000200e00021
:101fc00002003200f1ff37009380e90081097800b8
:101fd000110278008002eb006033b8000498be0064
:101fe0000690be0010000500000005004408200017
:101ff000848f5000270032000a003c0014082000a3
:10200000848f50001c00320024082000848f500070
:102010002600320004082000848f50002c003a0073
:102020001c00370004092000848f50001f0032007c
:1020300004003c0084082000848f500024003a00f3
:1020400007003700040a2000848f5000110032007e
:10205000040c2000848f50001d003a000600370059
:102060009380e900810978009100780001087800e8
:1020700082487800150037009380e90081097800d4
:102080009100780001087800cf91de008288be00c0
:102090000e0037009380e9008109780091007800f4
:1020a0000108780082087800080037009380e90072
:1020b0008109780091007800010878006112b90068
:1020c000612bb9008498be008690be001000050008
:1020d0000000050000000600abfb0700fdff070045
:1020e000fcff3700810378001d0007000001be00df
:1020f0006000b8000478a30013003a006220e100f9
:1021000015003e000d0039008301d1000281d3008b
:102110008180d3008301d1000281d3008180d3006c
:102120008301d1000281d3008180d3000538b00043
:10213000c42add00f300b2008381720007f0a7001b
:1021400003f0a0000000060083ff2700020020002b
:102150006110b900f9ff370003ff2700f7ff3700d0
:10216000c70ade00f107b200f50fb2000800320026
:10217000e1cf4200020032000170a00024000500ff
:10218000810f7000010032000408050044000500c2
:10219000810f700002003a00140005008502e9007a
:1021a0000000400081c04800fcff3b000170a0001f
:1021b00024000500020ab900001bb9000200b800a3
:1021c00081004200810043000000060000c0da00e8
:1021d0000000060000c0da000000060000c0da00bf
:0421e00000000600f5
:020000040000fa
:1021e4000d0a00002d2d00002d2d00002d2d0000c6
:1021f4002d2d00002d2d00002d2d00002d70000030
:1022040061750000736500002d2d00002d2d000068
:102214002d2d00002d2d00002d2d00002d2d000052
:102224002d0000000d0000004c430000445f00003e
:10223400546f00004c6900006e650000436f00009d
:102244006c00000020650000727200006f720000d4
:042254002100000065
:020000040000fa
:102258000000fa0033000700732ea8001c000700d6
:102268000080fa00000006000200fa0010002000ba
:10227800000f7800c3e8a9002188a800200f2900d2
:10228800801f78001afc07008f87e9004011290099
:102298002bfb070005003700a073800099800a0017
:1022a800000000000080fb00000f78001e0078008e
:1022b8000000e000f8ff3a0000242400f1002000ac
:1022c800bf040700c3e8a8000080fa000000060069
:1022d8000000fa00016da900e0c2b30005edb700e7
:1022e800016da8000080fa00000006000000fa0056
:1022f800016da9003b6ea900d16c8000f00f2c0085
:10230800008060000080a000d06c88003b4ea800d0
:10231800a0c3b30028edb700016da8000080fa0043
:10232800000006000000fa00f0ff0700c11180005d
:1023380000ff2f0000806000c01188003882a900cb
:1023480038a2a80038c2a90038e2a9003902a900b9
:102358003922a9003962a9003982a90039a2a90045
:1023680039e2a800d1118000c0ff2f000080600072
:10237800d01188003a42a9003a62a900d111800020
:10238800f0fc2f0000806000d01188003ac2a9003c
:102398003ae2a9003b02a900d1118000f09f2f006a
:1023a80000806000d01188003b62a9003bc2a900f0
:1023b8003be2a9003c22a900f1118000f0ff2800af
:1023c80000806000f0118800f1118000f08f2f006c
:1023d80000806000f0118800c00020000012880012
:1023e8000188a9000168a9002188a8002168a9001e
:1023f80010002000e08a88004822ef002188a80009
:1024080040112900cefa070040112900ccfa070034
:102418000080fa00000006000000fa0074000700bf
:102428000080fa00000006000200fa00004f780061
:102438001e407800aa0007000080fa00000006008d
:102448000200fa00004f78001e80fb008f01070091
:102458000080fa00000006000000fa00e000070013
:102468000080fa00000006000000fa0020002000aa
:10247800860107000170ef0001d0bf0000f0b7002f
:102488000080fa00000006000000fa0000082000a2
:102498007e0107000070ef000170ef000080fa0075
:1024a800000006000000fa00000c20007701070079
:1024b80010c0b30000f0b7000170ef000080fa0010
:1024c800000006000600fa000e81e8000009780006
:1024d80064004700010878000040eb00004f7800d6
:1024e8000e80e800100078000000e00021003400b1
:1024f80064004700100078000000e0001d00340070
:102508000e80e80010007800e20f500019003c002f
:102518006400470010007800f00f500015003c00e0
:102528000e80e80010007800e10f500007003a0024
:102538006400470010007800f007b000530107005e
:1025480010c0b300004f78000a0037000e80e80082
:1025580010007800e20f500006003a0064004700bf
:1025680010007800f00bb0004801070010c0b3005d
:10257800004f78001e4078000004e0000b00320095
:102588000e80e80010007800004078000040e90064
:1025980000f0b700640047001000780000407800a1
:1025a8000040e90001f0b70006003700aaff070065
:1025b8006011290005000700baff07004012290032
:1025c800020007000080fa00000006000200fa007e
:1025d800000f78001e0078006dfa07008000780070
:1025e8001e0078001d0007000080fa0000000600a9
:1025f8000000fa00b1738000f03f20000080600006
:10260800b073880091738000f03f20000080600064
:1026180090738800776ea900774ea900736ea900a1
:10262800734ea900774ea800004c2d001100200021
:10263800e30307008002200014010700c000200007
:102648001201070060002000100107006400070065
:1026580010c0b3000080fa00000006000400fa0071
:10266800000f78000e80e800010878000a003700a3
:102678001e007800104078000000fb000000e00019
:10268800140032001e007800104078001e0fe80089
:1026980013000700000000000e80e800100078001a
:1026a80000f0a7000000ea000000ea004f00de008a
:1026b800004078008e80e800910078000101e90070
:1026c8008e80e800820878000004e000e8ff3a0005
:1026d80001003700000000000080fa00000006003a
:1026e8000200fa00004f78001e00fb00ea0f5000bd
:1026f8000e003200ea0f500003003c00e80f5000c3
:10270800150032001b003700ec0f50001700320094
:10271800ed0f500017003a0009d0bf00ea4f5000f3
:1027280029003200370007002800370009d0bf0011
:10273800ed4f5000010032003200070000d0bf000a
:102748000004e00002003a007b0007001f00370089
:102758006e0007001d0037003600070000c2b300f6
:10276800dfff070033000700180037001c000700d0
:102778001600370001d0bf00f04f50000c003a009f
:102788000170ef0000d0bf000004e00005003a002f
:10279800000c2000bd00070010c0b30000f0b70017
:1027a8000300370000082000b80007000070ef00a1
:1027b8001e4078007700070001d0bf000040e80005
:1027c80001f0b70001003700000000001e4178004a
:1027d80091002100824878000080fa00000006007d
:1027e8000000fa0010002000a800070020002000c8
:1027f800a60007000070ef000170ef000080fa00eb
:10280800000006000000fa0000d0bf000004e0004d
:1028180003003a00000820009c000700020037006f
:10282800000c2000990007000170ef000080fa00fa
:10283800000006000200fa0001d0bf000004e0001a
:1028480014003a0000d0bf000004e00005003a0080
:10285800000c20008d00070010c0b30000f0b70086
:102868000300370000082000880007000070ef0010
:102878000040eb00004f7800020037000c00070012
:102888001e4fe8001e407800ee4f5000fbff360058
:102898000500370001d0bf000040e90001f0b70093
:1028a80000012000790007000080fa0000000600ff
:1028b8000000fa00400120007400070001d0bf00aa
:1028c8000040e80001f0b70001d0bf00f04f500011
:1028d8000c003a000170ef0000d0bf000004e000d7
:1028e80005003a00000c20006800070010c0b30083
:1028f80000f0b7000300370000082000630007005d
:102908000070ef000080fa00000006000200fa00e4
:102918000040eb00004f780002003700c5ff0700b9
:102928001e4fe8001e407800ef4f5000fbff3600b6
:102938000080fa00000006000200fa000040eb00e8
:10294800004f780002003700d9ff07001e4fe8004b
:102958001e407800ef4f5000fbff36000080fa0061
:10296800000006000200fa00004f78001e407800c0
:102978000004e00003003200f000200043000700dc
:1029880002003700c0002000400007000080fa0065
:10299800000006000800fa00e600470080487800ba
:1029a80066004700104078000000fb004800dd008a
:1029b800000f780000002f009e0060000e80e800e5
:1029c8000108780000f020009e00600064004700c5
:1029d800010878006400470010007800c400dd009a
:1029e8006400470001087800776ea800b173800082
:1029f800f0ff200000806000b0738800b173800091
:102a08000e80e8001000780001007000b0738800a4
:102a18004000200001002000e9020700774ea800ce
:102a28004000200001002000e5020700774ea900c1
:102a3800b1738000f0ff200000806000b073880050
:102a4800b173800064004700100078000100700036
:102a5800b07388004000200001002000d802070061
:102a6800774ea8004000200001002000d402070093
:102a7800774ea900776ea900800c20000100200085
:102a8800cf0207000080fa00000006000800fa00e4
:102a9800e6004700800878006600470010007800cc
:102aa8004800dd00000f780000002f009e00600045
:102ab8000e80e8000108780000f020009e00600009
:102ac800640047000108780064004700100078009f
:102ad800c400dd006400470001087800776ea90093
:102ae800b1738000f0ff200000806000b0738800a0
:102af800b17380000e80e8001000780001007000bb
:102b0800b0738800774ea800400020000100200024
:102b1800ab020700774ea900776ea900b173800059
:102b2800f0ff200000806000b0738800b17380005f
:102b3800640047001000780001007000b07388003e
:102b4800774ea80040002000010020009c020700ea
:102b5800774ea9006600470010007800f40f500077
:102b68000d003200f40f500005003e00ec0f50003d
:102b780009003200f00f5000070032000a00370049
:102b880081022000810f50000300320081032000e1
:102b9800810f500004003a00800c20000100200042
:102ba8008702070004003700009021000100200080
:102bb80083020700000000000080fa000000060001
:102bc8000000fa0000c4b3001dfe07000870ef0003
:102bd8000b00370008d0bf000000fb008000400059
:102be800e0002100008040001000780000407800dc
:102bf8000dfe070008d0bf000040e80008f0b7004d
:102c080008d0bf00e74f5000f2ff340080c4b30083
:102c18000bfe07000870ef000b00370008d0bf005c
:102c28000000fb0080004000e0012100008040001f
:102c38001000780000407800fbfd070008d0bf00b6
:102c48000040e80008f0b70008d0bf00e74f500088
:102c5800f2ff340000c5b300f9fd07000870ef006b
:102c68000b00370008d0bf000000fb0080004000c8
:102c7800e002210000804000100078000040780049
:102c8800e9fd070008d0bf000040e80008f0b700e1
:102c980008d0bf00e74f5000f2ff340080c5b300f2
:102ca800e7fd07000870ef000b00370008d0bf00f1
:102cb8000000fb0080004000e0032100008040008d
:102cc8001000780000407800d7fd070008d0bf004a
:102cd8000040e80008f0b70008d0bf00e74f5000f8
:102ce800f2ff34001100200020002000f5fd07004d
:102cf8000040eb00ccfd0700210020002000200050
:102d0800f0fd070010c0b300c7fd07003100200028
:102d180020002000ebfd070020c0b300c2fd070023
:102d28001100200010002000e6fd070030c0b300ad
:102d3800bdfd07000080fa00000006000000fa0050
:102d4800c5fd070000c6b300bdfd07000870ef0011
:102d58000b00370008d0bf000000fb0080004000d7
:102d6800e004210000804000100078000040780056
:102d7800adfd070008d0bf000040e80008f0b7002c
:102d880008d0bf00e74f5000f2ff340080c6b30000
:102d9800abfd07000870ef000b00370008d0bf003c
:102da8000000fb0080004000e0052100008040009a
:102db80010007800004078009bfd070008d0bf0095
:102dc8000040e80008f0b70008d0bf00e74f500007
:102dd800f2ff340000c7b30099fd07000870ef0048
:102de8000b00370008d0bf000000fb008000400047
:102df800e0062100008040001000780000407800c4
:102e080089fd070008d0bf000040e80008f0b700bf
:102e180008d0bf00e74f5000f2ff340080c4b30071
:102e280087fd07000870ef000b00370008d0bf00cf
:102e38000000fb0080004000e00721000080400007
:102e4800100078000040780077fd070008d0bf0028
:102e58000040e80008f0b70008d0bf00e74f500076
:102e6800f2ff3400310020002000200095fd07000b
:102e780040c0b3006cfd07002100200020002000a6
:102e880090fd070050c0b30067fd07004100200017
:102e9800200020008bfd070060c0b30062fd070022
:102ea800310020001000200086fd070070c0b3002c
:102eb8005dfd07000080fa00000006000000fa002f
:102ec80065fd070000c5b3005dfd07000870ef0051
:102ed8000b00370008d0bf000000fb008000400056
:102ee800e0082100008040001000780000407800d1
:102ef8004dfd070008d0bf000040e80008f0b7000b
:102f080008d0bf00e74f5000f2ff340080c5b3007f
:102f18004bfd07000870ef000b00370008d0bf001a
:102f28000000fb0080004000e00921000080400014
:102f380010007800004078003bfd070008d0bf0073
:102f48000040e80008f0b70008d0bf00e74f500085
:102f5800f2ff340000c6b30039fd07000870ef0027
:102f68000b00370008d0bf000000fb0080004000c5
:102f7800e00a21000080400010007800004078003e
:102f880029fd070008d0bf000040e80008f0b7009e
:102f980008d0bf00e74f5000f2ff340080c6b300ee
:102fa80027fd07000870ef000b00370008d0bf00ae
:102fb8000000fb0080004000e00b21000080400082
:102fc800100078000040780017fd070008d0bf0007
:102fd8000040e80008f0b70008d0bf00e74f5000f5
:102fe800f2ff3400410020002000200035fd0700da
:102ff80080c0b3000cfd0700310020002000200035
:1030080030fd070090c0b30007fd07004100200015
:10301800100020002bfd0700a0c0b30002fd070030
:10302800510020002000200026fd0700b0c0b3009a
:10303800fdfc07000080fa00000006000000fa000e
:1030480005fd070000c7b300fdfc07000870ef008e
:103058000b00370008d0bf000000fb0080004000d4
:10306800e00c21000080400010007800004078004b
:10307800edfc070008d0bf000040e80008f0b700ea
:1030880008d0bf00e74f5000f2ff340000cab30079
:10309800ebfc07000870ef000b00370008d0bf00fa
:1030a8000000fb0080004000e00d2100008040008f
:1030b8001000780000407800dbfc070008d0bf0053
:1030c8000040e80008f0b70008d0bf00e74f500004
:1030d800f2ff340000cbb300d9fc07000870ef0002
:1030e8000b00370008d0bf000000fb008000400044
:1030f800e00e2100008040001000780000407800b9
:10310800c9fc070008d0bf000040e80008f0b7007d
:1031180008d0bf00e74f5000f2ff34004100200004
:1031280020002000e7fc0700c0c0b300befc070079
:103138006100200020002000e2fc0700d0c0b3009e
:10314800b9fc07005100200020002000ddfc07002a
:10315800e0c0b300b4fc07000080fa0000000600dd
:103168000000fa00e08c2100000001000100370097
:1031780000000000a0942100000001000cd0bf0056
:103188000004e000faff3200e08d21000000010099
:10319800f8ff37000000fa002dfc0700e08d210041
:1031a80000000100a0932100000001000080fa0047
:1031b800000006000000fa0097fc0700a6fc0700c4
:1031c80030808000e10f50000c003200e10f500009
:1031d80003003c000000e000060032000d0037004c
:1031e800e20f500007003200e30f500007003200e2
:1031f8000800370072fe070006003700cffe070000
:10320800040037002dff0700020037008bff07007e
:1032180000000000508080008000eb006011b800c2
:1032280004902000d50320006033b800f9f60700a9
:10323800843e2000050020006033b8008cf60700ab
:103248000000be00de000700308080000000e800bb
:103258003080880030808000e30f50000100340087
:103268000630ef000080fa00000006000000fa00b7
:103278001fcea800730ea80072eea800732ea80037
:103288007aeea8000080fa00000006000000fa00ac
:1032980002d0bf000004a2000004e00024003200b5
:1032a8000171800000082000008060000000e0003c
:1032b80004003a0010c0b30002f0b700009a2100e1
:1032c80000000100017180000010200000806000f3
:1032d8000000e00004003a0010c0b30002f0b7009c
:1032e800209b2100000001000171800000002400e3
:1032f800008060000000e00004003a0010c0b30045
:1033080002f0b700e09b210000000100017180007d
:1033180000202000008060000000e00004003a0067
:1033280010c0b30002f0b700809a2100000001002d
:103338000080fa00000006000000fa000c70ef00a0
:103348000080fa00000006000000fa0010c0b30078
:103358000cf0b7000080fa00000006000000fa0038
:10336800508080004006b100508088000080fa003c
:10337800000006000000fa0051808000f07c200068
:10338800808f500003003e00508080004006b0004f
:0c339800508088000080fa000000060051
:020000040000fa
:1033a4000e100000f0000000820000000600010082
:1033b40000000000030004000001000006000000fb
:1033c40000180000040004000004000018000000bd
:1033d40000000000000008000014000008000000c5
:1033e40000000000000000000000000000000000d9
:1033f40000000000000008000014000008000000a5
:103404000000000000001800000400000400040094
:103414000018000000000000000000000600010089
:10342400000400000200010000060000000000008b
:103434000000000000000000000800001400080064
:103444000000000000000000000000000000040074
:10345400002a00000400000000000000180004001e
:103464000004000004001800000000000400020032
:103474000001000004000300000100000200040039
:103484000000000000000000000000000000020036
:103494000005000002000000000000000800140005
:1034a400000800000000000000000000020002000c
:1034b40000010000040003000001000006000000f9
:1034c4000000000000002a000015000011002a007e
:1034d40000040000000000000018000004000400c4
:1034e40000040000180000000000000000100000ac
:1034f4000a000000800000000a1000000400000020
:1035040082000000e8030100000000005c110000dc
:10351400020000008200000001000000fe10000014
:103524004200000082000000021104001104110096
:103534000100030000000000000000000000000083
:1035440000008000080000000000000000240800c3
:10355400be070000000000000000000000000000a2
:103564000000000000000000000000000000000057
:103574000000000000000000000000000000000047
:10358400401100001c00000082000000286e690049
:103594006c29000068076c00094c83006a90740071
:1035a400a07ac00000806800880084006c8200005b
:1035b400810000005e110000020000008000000095
:0435c4000000000003
:020000040000fa
:1035c800f03fb1000180b10006003500ee030900ac
:1035d80000000000403fb1000180b100fbff3d004a
:1035e8001000b000203fb000020035000080090044
:0835f8000000000000000600c5
:020000040000fa
:04360000ffffff00c9
:020000040000fa
:020000040002f8
:04be3000faffff0016
:020000040000fa
:020000040002f8
:04be3800bef3ff0056
:020000040000fa
:020000040002f8
:04be4000ff7fff0081
:020000040000fa
:020000040002f8
:04be5000deffff0012
:00000001FF
